{
  "contractName": "League",
  "abi": [
    {
      "constant": true,
      "inputs": [],
      "name": "manager",
      "outputs": [
        {
          "name": "",
          "type": "address"
        }
      ],
      "payable": false,
      "stateMutability": "view",
      "type": "function"
    },
    {
      "constant": true,
      "inputs": [
        {
          "name": "",
          "type": "uint256"
        }
      ],
      "name": "competitions",
      "outputs": [
        {
          "name": "manager",
          "type": "address"
        },
        {
          "name": "complete",
          "type": "bool"
        },
        {
          "name": "prizeMoney",
          "type": "uint256"
        },
        {
          "name": "maxPlayers",
          "type": "uint256"
        }
      ],
      "payable": false,
      "stateMutability": "view",
      "type": "function"
    },
    {
      "inputs": [
        {
          "name": "creator",
          "type": "address"
        }
      ],
      "payable": false,
      "stateMutability": "nonpayable",
      "type": "constructor"
    },
    {
      "constant": false,
      "inputs": [
        {
          "name": "max",
          "type": "uint256"
        }
      ],
      "name": "createCompetition",
      "outputs": [],
      "payable": true,
      "stateMutability": "payable",
      "type": "function"
    },
    {
      "constant": false,
      "inputs": [
        {
          "name": "index",
          "type": "uint256"
        }
      ],
      "name": "joinCompetition",
      "outputs": [],
      "payable": false,
      "stateMutability": "nonpayable",
      "type": "function"
    },
    {
      "constant": false,
      "inputs": [
        {
          "name": "index",
          "type": "uint256"
        },
        {
          "name": "winner",
          "type": "address"
        }
      ],
      "name": "awardWinner",
      "outputs": [],
      "payable": false,
      "stateMutability": "nonpayable",
      "type": "function"
    }
  ],
  "bytecode": "0x608060405234801561001057600080fd5b5060405160208061068a83398101806040528101908080519060200190929190505050806000806101000a81548173ffffffffffffffffffffffffffffffffffffffff021916908373ffffffffffffffffffffffffffffffffffffffff16021790555050610607806100836000396000f30060806040526004361061006d576000357c0100000000000000000000000000000000000000000000000000000000900463ffffffff1680631095846f14610072578063481c6a751461009f57806371730b5f146100f6578063958bc07d146101435780639f6828d914610163575b600080fd5b34801561007e57600080fd5b5061009d600480360381019080803590602001909291905050506101e9565b005b3480156100ab57600080fd5b506100b46102d8565b604051808273ffffffffffffffffffffffffffffffffffffffff1673ffffffffffffffffffffffffffffffffffffffff16815260200191505060405180910390f35b34801561010257600080fd5b5061014160048036038101908080359060200190929190803573ffffffffffffffffffffffffffffffffffffffff1690602001909291905050506102fd565b005b61016160048036038101908080359060200190929190505050610439565b005b34801561016f57600080fd5b5061018e6004803603810190808035906020019092919050505061052e565b604051808573ffffffffffffffffffffffffffffffffffffffff1673ffffffffffffffffffffffffffffffffffffffff1681526020018415151515815260200183815260200182815260200194505050505060405180910390f35b6001818154811015156101f857fe5b906000526020600020906004020160030160003373ffffffffffffffffffffffffffffffffffffffff1673ffffffffffffffffffffffffffffffffffffffff16815260200190815260200160002060009054906101000a900460ff1615151561026057600080fd5b6001808281548110151561027057fe5b906000526020600020906004020160030160003373ffffffffffffffffffffffffffffffffffffffff1673ffffffffffffffffffffffffffffffffffffffff16815260200190815260200160002060006101000a81548160ff02191690831515021790555050565b6000809054906101000a900473ffffffffffffffffffffffffffffffffffffffff1681565b6000809054906101000a900473ffffffffffffffffffffffffffffffffffffffff1673ffffffffffffffffffffffffffffffffffffffff163373ffffffffffffffffffffffffffffffffffffffff1614151561035857600080fd5b60018281548110151561036757fe5b906000526020600020906004020160030160008273ffffffffffffffffffffffffffffffffffffffff1673ffffffffffffffffffffffffffffffffffffffff16815260200190815260200160002060009054906101000a900460ff1615156103ce57600080fd5b8073ffffffffffffffffffffffffffffffffffffffff166108fc6001848154811015156103f757fe5b9060005260206000209060040201600101549081150290604051600060405180830381858888f19350505050158015610434573d6000803e3d6000fd5b505050565b61044161059a565b6080604051908101604052803373ffffffffffffffffffffffffffffffffffffffff1681526020016000151581526020013481526020018381525090506001819080600181540180825580915050906001820390600052602060002090600402016000909192909190915060008201518160000160006101000a81548173ffffffffffffffffffffffffffffffffffffffff021916908373ffffffffffffffffffffffffffffffffffffffff16021790555060208201518160000160146101000a81548160ff02191690831515021790555060408201518160010155606082015181600201555050505050565b60018181548110151561053d57fe5b90600052602060002090600402016000915090508060000160009054906101000a900473ffffffffffffffffffffffffffffffffffffffff16908060000160149054906101000a900460ff16908060010154908060020154905084565b608060405190810160405280600073ffffffffffffffffffffffffffffffffffffffff168152602001600015158152602001600081526020016000815250905600a165627a7a72305820933ce10957e0500276054153f8c8728ac8ee2a9bfcd9cfe847d6d271819f18080029",
  "source": "pragma solidity ^0.4.22;\n\ncontract League {\naddress public manager;\n    //restrictor\n    modifier restricted(){\n        require(msg.sender == manager);\n        _;\n    }\n    struct Competition{\n        address manager;\n        bool complete;\n        uint prizeMoney;\n        uint maxPlayers;\n        mapping(address=> bool) competitor;\n    }\n    \n    Competition[] public competitions;\n    \n    //constructor\n   constructor(address creator ) public{\n        manager = creator;\n        \n    }\n    //create Competition\n    function createCompetition(uint max) public payable{\n        \n        Competition memory newCompetition = Competition({\n            manager: msg.sender,\n            complete: false,\n            maxPlayers: max,\n            prizeMoney: msg.value\n        });\n        \n        competitions.push(newCompetition);\n        \n    }\n    \n    //join competitions using competion inde\n    function joinCompetition(uint index) public{\n        //check if joining twice\n        require(!competitions[index].competitor[msg.sender]);\n        // add msg sender to competition\n        competitions[index].competitor[msg.sender]= true;\n        \n    }\n    \n    //award winner using winner address\n    function awardWinner(uint index, address winner) public restricted{\n         //check if address is in competition\n        require(competitions[index].competitor[winner]);\n        // send winner the cash\n        winner.transfer(competitions[index].prizeMoney);\n        \n        \n    }\n}\n",
  "sourcePath": "C:\\Users\\Solution Science\\Google Drive\\work2\\projects\\ethereum-FCC\\contracts\\League.sol",
  "compiler": {
    "name": "solc",
    "version": "0.4.24+commit.e67f0147.Emscripten.clang"
  },
  "schemaVersion": "2.0.1",
  "updatedAt": "2018-11-23T15:56:27.951Z"
}